{
  "_format": "hh-sol-artifact-1",
  "contractName": "AetherCoin",
  "sourceName": "ERC20.sol",
  "abi": [
    {
      "inputs": [
        {
          "internalType": "string",
          "name": "name_",
          "type": "string"
        },
        {
          "internalType": "string",
          "name": "symbol_",
          "type": "string"
        },
        {
          "internalType": "uint8",
          "name": "decimals_",
          "type": "uint8"
        },
        {
          "internalType": "uint256",
          "name": "initialSupply",
          "type": "uint256"
        }
      ],
      "stateMutability": "nonpayable",
      "type": "constructor"
    },
    {
      "anonymous": false,
      "inputs": [
        {
          "indexed": true,
          "internalType": "address",
          "name": "owner",
          "type": "address"
        },
        {
          "indexed": true,
          "internalType": "address",
          "name": "spender",
          "type": "address"
        },
        {
          "indexed": false,
          "internalType": "uint256",
          "name": "value",
          "type": "uint256"
        }
      ],
      "name": "Approval",
      "type": "event"
    },
    {
      "anonymous": false,
      "inputs": [
        {
          "indexed": false,
          "internalType": "address",
          "name": "account",
          "type": "address"
        }
      ],
      "name": "Paused",
      "type": "event"
    },
    {
      "anonymous": false,
      "inputs": [
        {
          "indexed": true,
          "internalType": "address",
          "name": "from",
          "type": "address"
        },
        {
          "indexed": true,
          "internalType": "address",
          "name": "to",
          "type": "address"
        },
        {
          "indexed": false,
          "internalType": "uint256",
          "name": "value",
          "type": "uint256"
        }
      ],
      "name": "Transfer",
      "type": "event"
    },
    {
      "anonymous": false,
      "inputs": [
        {
          "indexed": false,
          "internalType": "address",
          "name": "account",
          "type": "address"
        }
      ],
      "name": "Unpaused",
      "type": "event"
    },
    {
      "inputs": [
        {
          "internalType": "address",
          "name": "owner",
          "type": "address"
        },
        {
          "internalType": "address",
          "name": "spender",
          "type": "address"
        }
      ],
      "name": "allowance",
      "outputs": [
        {
          "internalType": "uint256",
          "name": "",
          "type": "uint256"
        }
      ],
      "stateMutability": "view",
      "type": "function"
    },
    {
      "inputs": [
        {
          "internalType": "address",
          "name": "spender",
          "type": "address"
        },
        {
          "internalType": "uint256",
          "name": "amount",
          "type": "uint256"
        }
      ],
      "name": "approve",
      "outputs": [
        {
          "internalType": "bool",
          "name": "",
          "type": "bool"
        }
      ],
      "stateMutability": "nonpayable",
      "type": "function"
    },
    {
      "inputs": [
        {
          "internalType": "address",
          "name": "account",
          "type": "address"
        }
      ],
      "name": "balanceOf",
      "outputs": [
        {
          "internalType": "uint256",
          "name": "",
          "type": "uint256"
        }
      ],
      "stateMutability": "view",
      "type": "function"
    },
    {
      "inputs": [],
      "name": "decimals",
      "outputs": [
        {
          "internalType": "uint8",
          "name": "",
          "type": "uint8"
        }
      ],
      "stateMutability": "view",
      "type": "function"
    },
    {
      "inputs": [
        {
          "internalType": "address",
          "name": "spender",
          "type": "address"
        },
        {
          "internalType": "uint256",
          "name": "subtractedValue",
          "type": "uint256"
        }
      ],
      "name": "decreaseAllowance",
      "outputs": [
        {
          "internalType": "bool",
          "name": "",
          "type": "bool"
        }
      ],
      "stateMutability": "nonpayable",
      "type": "function"
    },
    {
      "inputs": [
        {
          "internalType": "address",
          "name": "spender",
          "type": "address"
        },
        {
          "internalType": "uint256",
          "name": "addedValue",
          "type": "uint256"
        }
      ],
      "name": "increaseAllowance",
      "outputs": [
        {
          "internalType": "bool",
          "name": "",
          "type": "bool"
        }
      ],
      "stateMutability": "nonpayable",
      "type": "function"
    },
    {
      "inputs": [],
      "name": "name",
      "outputs": [
        {
          "internalType": "string",
          "name": "",
          "type": "string"
        }
      ],
      "stateMutability": "view",
      "type": "function"
    },
    {
      "inputs": [],
      "name": "owner",
      "outputs": [
        {
          "internalType": "address",
          "name": "",
          "type": "address"
        }
      ],
      "stateMutability": "view",
      "type": "function"
    },
    {
      "inputs": [],
      "name": "pause",
      "outputs": [],
      "stateMutability": "nonpayable",
      "type": "function"
    },
    {
      "inputs": [],
      "name": "paused",
      "outputs": [
        {
          "internalType": "bool",
          "name": "",
          "type": "bool"
        }
      ],
      "stateMutability": "view",
      "type": "function"
    },
    {
      "inputs": [],
      "name": "symbol",
      "outputs": [
        {
          "internalType": "string",
          "name": "",
          "type": "string"
        }
      ],
      "stateMutability": "view",
      "type": "function"
    },
    {
      "inputs": [],
      "name": "totalSupply",
      "outputs": [
        {
          "internalType": "uint256",
          "name": "",
          "type": "uint256"
        }
      ],
      "stateMutability": "view",
      "type": "function"
    },
    {
      "inputs": [
        {
          "internalType": "address",
          "name": "recipient",
          "type": "address"
        },
        {
          "internalType": "uint256",
          "name": "amount",
          "type": "uint256"
        }
      ],
      "name": "transfer",
      "outputs": [
        {
          "internalType": "bool",
          "name": "",
          "type": "bool"
        }
      ],
      "stateMutability": "nonpayable",
      "type": "function"
    },
    {
      "inputs": [
        {
          "internalType": "address",
          "name": "sender",
          "type": "address"
        },
        {
          "internalType": "address",
          "name": "recipient",
          "type": "address"
        },
        {
          "internalType": "uint256",
          "name": "amount",
          "type": "uint256"
        }
      ],
      "name": "transferFrom",
      "outputs": [
        {
          "internalType": "bool",
          "name": "",
          "type": "bool"
        }
      ],
      "stateMutability": "nonpayable",
      "type": "function"
    },
    {
      "inputs": [],
      "name": "unpause",
      "outputs": [],
      "stateMutability": "nonpayable",
      "type": "function"
    }
  ],
  "bytecode": "0x60806040523480156200001157600080fd5b5060405162001f3738038062001f3783398181016040528101906200003791906200044e565b838381600390816200004a91906200073f565b5080600490816200005c91906200073f565b5050506000600560006101000a81548160ff02191690831515021790555033600560026101000a81548173ffffffffffffffffffffffffffffffffffffffff021916908373ffffffffffffffffffffffffffffffffffffffff16021790555081600560016101000a81548160ff021916908360ff160217905550620000e83382620000f260201b60201c565b5050505062000941565b600073ffffffffffffffffffffffffffffffffffffffff168273ffffffffffffffffffffffffffffffffffffffff160362000164576040517f08c379a00000000000000000000000000000000000000000000000000000000081526004016200015b9062000887565b60405180910390fd5b8060026000828254620001789190620008d8565b92505081905550806000808473ffffffffffffffffffffffffffffffffffffffff1673ffffffffffffffffffffffffffffffffffffffff1681526020019081526020016000206000828254620001cf9190620008d8565b925050819055508173ffffffffffffffffffffffffffffffffffffffff16600073ffffffffffffffffffffffffffffffffffffffff167fddf252ad1be2c89b69c2b068fc378daa952ba7f163c4a11628f55a4df523b3ef8360405162000236919062000924565b60405180910390a35050565b6000604051905090565b600080fd5b600080fd5b600080fd5b600080fd5b6000601f19601f8301169050919050565b7f4e487b7100000000000000000000000000000000000000000000000000000000600052604160045260246000fd5b620002ab8262000260565b810181811067ffffffffffffffff82111715620002cd57620002cc62000271565b5b80604052505050565b6000620002e262000242565b9050620002f08282620002a0565b919050565b600067ffffffffffffffff82111562000313576200031262000271565b5b6200031e8262000260565b9050602081019050919050565b60005b838110156200034b5780820151818401526020810190506200032e565b60008484015250505050565b60006200036e6200036884620002f5565b620002d6565b9050828152602081018484840111156200038d576200038c6200025b565b5b6200039a8482856200032b565b509392505050565b600082601f830112620003ba57620003b962000256565b5b8151620003cc84826020860162000357565b91505092915050565b600060ff82169050919050565b620003ed81620003d5565b8114620003f957600080fd5b50565b6000815190506200040d81620003e2565b92915050565b6000819050919050565b620004288162000413565b81146200043457600080fd5b50565b60008151905062000448816200041d565b92915050565b600080600080608085870312156200046b576200046a6200024c565b5b600085015167ffffffffffffffff8111156200048c576200048b62000251565b5b6200049a87828801620003a2565b945050602085015167ffffffffffffffff811115620004be57620004bd62000251565b5b620004cc87828801620003a2565b9350506040620004df87828801620003fc565b9250506060620004f28782880162000437565b91505092959194509250565b600081519050919050565b7f4e487b7100000000000000000000000000000000000000000000000000000000600052602260045260246000fd5b600060028204905060018216806200055157607f821691505b60208210810362000567576200056662000509565b5b50919050565b60008190508160005260206000209050919050565b60006020601f8301049050919050565b600082821b905092915050565b600060088302620005d17fffffffffffffffffffffffffffffffffffffffffffffffffffffffffffffffff8262000592565b620005dd868362000592565b95508019841693508086168417925050509392505050565b6000819050919050565b6000620006206200061a620006148462000413565b620005f5565b62000413565b9050919050565b6000819050919050565b6200063c83620005ff565b620006546200064b8262000627565b8484546200059f565b825550505050565b600090565b6200066b6200065c565b6200067881848462000631565b505050565b5b81811015620006a0576200069460008262000661565b6001810190506200067e565b5050565b601f821115620006ef57620006b9816200056d565b620006c48462000582565b81016020851015620006d4578190505b620006ec620006e38562000582565b8301826200067d565b50505b505050565b600082821c905092915050565b60006200071460001984600802620006f4565b1980831691505092915050565b60006200072f838362000701565b9150826002028217905092915050565b6200074a82620004fe565b67ffffffffffffffff81111562000766576200076562000271565b5b62000772825462000538565b6200077f828285620006a4565b600060209050601f831160018114620007b75760008415620007a2578287015190505b620007ae858262000721565b8655506200081e565b601f198416620007c7866200056d565b60005b82811015620007f157848901518255600182019150602085019450602081019050620007ca565b868310156200081157848901516200080d601f89168262000701565b8355505b6001600288020188555050505b505050505050565b600082825260208201905092915050565b7f45524332303a206d696e7420746f20746865207a65726f206164647265737300600082015250565b60006200086f601f8362000826565b91506200087c8262000837565b602082019050919050565b60006020820190508181036000830152620008a28162000860565b9050919050565b7f4e487b7100000000000000000000000000000000000000000000000000000000600052601160045260246000fd5b6000620008e58262000413565b9150620008f28362000413565b92508282019050808211156200090d576200090c620008a9565b5b92915050565b6200091e8162000413565b82525050565b60006020820190506200093b600083018462000913565b92915050565b6115e680620009516000396000f3fe608060405234801561001057600080fd5b50600436106100f55760003560e01c80635c975abb1161009757806395d89b411161006657806395d89b4114610264578063a457c2d714610282578063a9059cbb146102b2578063dd62ed3e146102e2576100f5565b80635c975abb146101ee57806370a082311461020c5780638456cb591461023c5780638da5cb5b14610246576100f5565b806323b872dd116100d357806323b872dd14610166578063313ce5671461019657806339509351146101b45780633f4ba83a146101e4576100f5565b806306fdde03146100fa578063095ea7b31461011857806318160ddd14610148575b600080fd5b610102610312565b60405161010f9190610e8b565b60405180910390f35b610132600480360381019061012d9190610f46565b6103a4565b60405161013f9190610fa1565b60405180910390f35b6101506103c2565b60405161015d9190610fcb565b60405180910390f35b610180600480360381019061017b9190610fe6565b6103cc565b60405161018d9190610fa1565b60405180910390f35b61019e610484565b6040516101ab9190611055565b60405180910390f35b6101ce60048036038101906101c99190610f46565b61049b565b6040516101db9190610fa1565b60405180910390f35b6101ec610547565b005b6101f66105e1565b6040516102039190610fa1565b60405180910390f35b61022660048036038101906102219190611070565b6105f8565b6040516102339190610fcb565b60405180910390f35b610244610640565b005b61024e6106da565b60405161025b91906110ac565b60405180910390f35b61026c610700565b6040516102799190610e8b565b60405180910390f35b61029c60048036038101906102979190610f46565b610792565b6040516102a99190610fa1565b60405180910390f35b6102cc60048036038101906102c79190610f46565b61083e565b6040516102d99190610fa1565b60405180910390f35b6102fc60048036038101906102f791906110c7565b61085c565b6040516103099190610fcb565b60405180910390f35b60606003805461032190611136565b80601f016020809104026020016040519081016040528092919081815260200182805461034d90611136565b801561039a5780601f1061036f5761010080835404028352916020019161039a565b820191906000526020600020905b81548152906001019060200180831161037d57829003601f168201915b5050505050905090565b60006103b86103b16108e3565b84846108eb565b6001905092915050565b6000600254905090565b60006103d9848484610ab4565b610479846103e56108e3565b84600160008973ffffffffffffffffffffffffffffffffffffffff1673ffffffffffffffffffffffffffffffffffffffff168152602001908152602001600020600061042f6108e3565b73ffffffffffffffffffffffffffffffffffffffff1673ffffffffffffffffffffffffffffffffffffffff168152602001908152602001600020546104749190611196565b6108eb565b600190509392505050565b6000600560019054906101000a900460ff16905090565b600061053d6104a86108e3565b8484600160006104b66108e3565b73ffffffffffffffffffffffffffffffffffffffff1673ffffffffffffffffffffffffffffffffffffffff16815260200190815260200160002060008873ffffffffffffffffffffffffffffffffffffffff1673ffffffffffffffffffffffffffffffffffffffff1681526020019081526020016000205461053891906111ca565b6108eb565b6001905092915050565b600560029054906101000a900473ffffffffffffffffffffffffffffffffffffffff1673ffffffffffffffffffffffffffffffffffffffff163373ffffffffffffffffffffffffffffffffffffffff16146105d7576040517f08c379a00000000000000000000000000000000000000000000000000000000081526004016105ce90611270565b60405180910390fd5b6105df610ca6565b565b6000600560009054906101000a900460ff16905090565b60008060008373ffffffffffffffffffffffffffffffffffffffff1673ffffffffffffffffffffffffffffffffffffffff168152602001908152602001600020549050919050565b600560029054906101000a900473ffffffffffffffffffffffffffffffffffffffff1673ffffffffffffffffffffffffffffffffffffffff163373ffffffffffffffffffffffffffffffffffffffff16146106d0576040517f08c379a00000000000000000000000000000000000000000000000000000000081526004016106c790611270565b60405180910390fd5b6106d8610d50565b565b600560029054906101000a900473ffffffffffffffffffffffffffffffffffffffff1681565b60606004805461070f90611136565b80601f016020809104026020016040519081016040528092919081815260200182805461073b90611136565b80156107885780601f1061075d57610100808354040283529160200191610788565b820191906000526020600020905b81548152906001019060200180831161076b57829003601f168201915b5050505050905090565b600061083461079f6108e3565b8484600160006107ad6108e3565b73ffffffffffffffffffffffffffffffffffffffff1673ffffffffffffffffffffffffffffffffffffffff16815260200190815260200160002060008873ffffffffffffffffffffffffffffffffffffffff1673ffffffffffffffffffffffffffffffffffffffff1681526020019081526020016000205461082f9190611196565b6108eb565b6001905092915050565b600061085261084b6108e3565b8484610ab4565b6001905092915050565b6000600160008473ffffffffffffffffffffffffffffffffffffffff1673ffffffffffffffffffffffffffffffffffffffff16815260200190815260200160002060008373ffffffffffffffffffffffffffffffffffffffff1673ffffffffffffffffffffffffffffffffffffffff16815260200190815260200160002054905092915050565b600033905090565b600073ffffffffffffffffffffffffffffffffffffffff168373ffffffffffffffffffffffffffffffffffffffff160361095a576040517f08c379a000000000000000000000000000000000000000000000000000000000815260040161095190611302565b60405180910390fd5b600073ffffffffffffffffffffffffffffffffffffffff168273ffffffffffffffffffffffffffffffffffffffff16036109c9576040517f08c379a00000000000000000000000000000000000000000000000000000000081526004016109c090611394565b60405180910390fd5b80600160008573ffffffffffffffffffffffffffffffffffffffff1673ffffffffffffffffffffffffffffffffffffffff16815260200190815260200160002060008473ffffffffffffffffffffffffffffffffffffffff1673ffffffffffffffffffffffffffffffffffffffff168152602001908152602001600020819055508173ffffffffffffffffffffffffffffffffffffffff168373ffffffffffffffffffffffffffffffffffffffff167f8c5be1e5ebec7d5bd14f71427d1e84f3dd0314c0f7b2291e5b200ac8c7c3b92583604051610aa79190610fcb565b60405180910390a3505050565b600073ffffffffffffffffffffffffffffffffffffffff168373ffffffffffffffffffffffffffffffffffffffff1603610b23576040517f08c379a0000000000000000000000000000000000000000000000000000000008152600401610b1a90611426565b60405180910390fd5b600073ffffffffffffffffffffffffffffffffffffffff168273ffffffffffffffffffffffffffffffffffffffff1603610b92576040517f08c379a0000000000000000000000000000000000000000000000000000000008152600401610b89906114b8565b60405180910390fd5b806000808573ffffffffffffffffffffffffffffffffffffffff1673ffffffffffffffffffffffffffffffffffffffff1681526020019081526020016000206000828254610be09190611196565b92505081905550806000808473ffffffffffffffffffffffffffffffffffffffff1673ffffffffffffffffffffffffffffffffffffffff1681526020019081526020016000206000828254610c3591906111ca565b925050819055508173ffffffffffffffffffffffffffffffffffffffff168373ffffffffffffffffffffffffffffffffffffffff167fddf252ad1be2c89b69c2b068fc378daa952ba7f163c4a11628f55a4df523b3ef83604051610c999190610fcb565b60405180910390a3505050565b600560009054906101000a900460ff16610cf5576040517f08c379a0000000000000000000000000000000000000000000000000000000008152600401610cec90611524565b60405180910390fd5b6000600560006101000a81548160ff0219169083151502179055507f5db9ee0a495bf2e6ff9c91a7834c1ba4fdd244a5e8aa4e537bd38aeae4b073aa610d396108e3565b604051610d4691906110ac565b60405180910390a1565b600560009054906101000a900460ff1615610da0576040517f08c379a0000000000000000000000000000000000000000000000000000000008152600401610d9790611590565b60405180910390fd5b6001600560006101000a81548160ff0219169083151502179055507f62e78cea01bee320cd4e420270b5ea74000d11b0c9f74754ebdbfc544b05a258610de46108e3565b604051610df191906110ac565b60405180910390a1565b600081519050919050565b600082825260208201905092915050565b60005b83811015610e35578082015181840152602081019050610e1a565b60008484015250505050565b6000601f19601f8301169050919050565b6000610e5d82610dfb565b610e678185610e06565b9350610e77818560208601610e17565b610e8081610e41565b840191505092915050565b60006020820190508181036000830152610ea58184610e52565b905092915050565b600080fd5b600073ffffffffffffffffffffffffffffffffffffffff82169050919050565b6000610edd82610eb2565b9050919050565b610eed81610ed2565b8114610ef857600080fd5b50565b600081359050610f0a81610ee4565b92915050565b6000819050919050565b610f2381610f10565b8114610f2e57600080fd5b50565b600081359050610f4081610f1a565b92915050565b60008060408385031215610f5d57610f5c610ead565b5b6000610f6b85828601610efb565b9250506020610f7c85828601610f31565b9150509250929050565b60008115159050919050565b610f9b81610f86565b82525050565b6000602082019050610fb66000830184610f92565b92915050565b610fc581610f10565b82525050565b6000602082019050610fe06000830184610fbc565b92915050565b600080600060608486031215610fff57610ffe610ead565b5b600061100d86828701610efb565b935050602061101e86828701610efb565b925050604061102f86828701610f31565b9150509250925092565b600060ff82169050919050565b61104f81611039565b82525050565b600060208201905061106a6000830184611046565b92915050565b60006020828403121561108657611085610ead565b5b600061109484828501610efb565b91505092915050565b6110a681610ed2565b82525050565b60006020820190506110c1600083018461109d565b92915050565b600080604083850312156110de576110dd610ead565b5b60006110ec85828601610efb565b92505060206110fd85828601610efb565b9150509250929050565b7f4e487b7100000000000000000000000000000000000000000000000000000000600052602260045260246000fd5b6000600282049050600182168061114e57607f821691505b60208210810361116157611160611107565b5b50919050565b7f4e487b7100000000000000000000000000000000000000000000000000000000600052601160045260246000fd5b60006111a182610f10565b91506111ac83610f10565b92508282039050818111156111c4576111c3611167565b5b92915050565b60006111d582610f10565b91506111e083610f10565b92508282019050808211156111f8576111f7611167565b5b92915050565b7f416574686572436f696e3a2063616c6c6572206973206e6f7420746865206f7760008201527f6e65720000000000000000000000000000000000000000000000000000000000602082015250565b600061125a602383610e06565b9150611265826111fe565b604082019050919050565b600060208201905081810360008301526112898161124d565b9050919050565b7f45524332303a20617070726f76652066726f6d20746865207a65726f2061646460008201527f7265737300000000000000000000000000000000000000000000000000000000602082015250565b60006112ec602483610e06565b91506112f782611290565b604082019050919050565b6000602082019050818103600083015261131b816112df565b9050919050565b7f45524332303a20617070726f766520746f20746865207a65726f20616464726560008201527f7373000000000000000000000000000000000000000000000000000000000000602082015250565b600061137e602283610e06565b915061138982611322565b604082019050919050565b600060208201905081810360008301526113ad81611371565b9050919050565b7f45524332303a207472616e736665722066726f6d20746865207a65726f20616460008201527f6472657373000000000000000000000000000000000000000000000000000000602082015250565b6000611410602583610e06565b915061141b826113b4565b604082019050919050565b6000602082019050818103600083015261143f81611403565b9050919050565b7f45524332303a207472616e7366657220746f20746865207a65726f206164647260008201527f6573730000000000000000000000000000000000000000000000000000000000602082015250565b60006114a2602383610e06565b91506114ad82611446565b604082019050919050565b600060208201905081810360008301526114d181611495565b9050919050565b7f5061757361626c653a206e6f7420706175736564000000000000000000000000600082015250565b600061150e601483610e06565b9150611519826114d8565b602082019050919050565b6000602082019050818103600083015261153d81611501565b9050919050565b7f5061757361626c653a2070617573656400000000000000000000000000000000600082015250565b600061157a601083610e06565b915061158582611544565b602082019050919050565b600060208201905081810360008301526115a98161156d565b905091905056fea26469706673582212201f232f7f01a4ac21818b56e40345018433b8bedde0733b174eb38f757ae9edc064736f6c63430008130033",
  "linkReferences": {},
  "deployedLinkReferences": {}
}