{
  "_format": "hh-sol-artifact-1",
  "contractName": "Marketplace",
  "sourceName": "Marketplace.sol",
  "abi": [
    {
      "inputs": [
        {
          "internalType": "address",
          "name": "_aetherCoin",
          "type": "address"
        }
      ],
      "stateMutability": "nonpayable",
      "type": "constructor"
    },
    {
      "anonymous": false,
      "inputs": [
        {
          "indexed": true,
          "internalType": "uint256",
          "name": "itemId",
          "type": "uint256"
        }
      ],
      "name": "ItemDelisted",
      "type": "event"
    },
    {
      "anonymous": false,
      "inputs": [
        {
          "indexed": true,
          "internalType": "uint256",
          "name": "itemId",
          "type": "uint256"
        },
        {
          "indexed": true,
          "internalType": "address",
          "name": "seller",
          "type": "address"
        },
        {
          "indexed": false,
          "internalType": "string",
          "name": "name",
          "type": "string"
        },
        {
          "indexed": false,
          "internalType": "uint256",
          "name": "price",
          "type": "uint256"
        }
      ],
      "name": "ItemListed",
      "type": "event"
    },
    {
      "anonymous": false,
      "inputs": [
        {
          "indexed": true,
          "internalType": "uint256",
          "name": "itemId",
          "type": "uint256"
        },
        {
          "indexed": true,
          "internalType": "address",
          "name": "seller",
          "type": "address"
        },
        {
          "indexed": true,
          "internalType": "address",
          "name": "buyer",
          "type": "address"
        },
        {
          "indexed": false,
          "internalType": "uint256",
          "name": "price",
          "type": "uint256"
        }
      ],
      "name": "ItemSold",
      "type": "event"
    },
    {
      "anonymous": false,
      "inputs": [
        {
          "indexed": true,
          "internalType": "uint256",
          "name": "offerId",
          "type": "uint256"
        },
        {
          "indexed": true,
          "internalType": "uint256",
          "name": "itemId",
          "type": "uint256"
        }
      ],
      "name": "OfferAccepted",
      "type": "event"
    },
    {
      "anonymous": false,
      "inputs": [
        {
          "indexed": true,
          "internalType": "uint256",
          "name": "offerId",
          "type": "uint256"
        }
      ],
      "name": "OfferCancelled",
      "type": "event"
    },
    {
      "anonymous": false,
      "inputs": [
        {
          "indexed": true,
          "internalType": "uint256",
          "name": "offerId",
          "type": "uint256"
        },
        {
          "indexed": true,
          "internalType": "uint256",
          "name": "itemId",
          "type": "uint256"
        },
        {
          "indexed": true,
          "internalType": "address",
          "name": "buyer",
          "type": "address"
        },
        {
          "indexed": false,
          "internalType": "uint256",
          "name": "amount",
          "type": "uint256"
        }
      ],
      "name": "OfferMade",
      "type": "event"
    },
    {
      "anonymous": false,
      "inputs": [
        {
          "indexed": false,
          "internalType": "uint256",
          "name": "newFeePercent",
          "type": "uint256"
        }
      ],
      "name": "PlatformFeeUpdated",
      "type": "event"
    },
    {
      "inputs": [
        {
          "internalType": "uint256",
          "name": "_offerId",
          "type": "uint256"
        }
      ],
      "name": "acceptOffer",
      "outputs": [],
      "stateMutability": "nonpayable",
      "type": "function"
    },
    {
      "inputs": [],
      "name": "aetherCoin",
      "outputs": [
        {
          "internalType": "address",
          "name": "",
          "type": "address"
        }
      ],
      "stateMutability": "view",
      "type": "function"
    },
    {
      "inputs": [
        {
          "internalType": "uint256",
          "name": "_itemId",
          "type": "uint256"
        }
      ],
      "name": "buyItem",
      "outputs": [],
      "stateMutability": "nonpayable",
      "type": "function"
    },
    {
      "inputs": [
        {
          "internalType": "uint256",
          "name": "_offerId",
          "type": "uint256"
        }
      ],
      "name": "cancelOffer",
      "outputs": [],
      "stateMutability": "nonpayable",
      "type": "function"
    },
    {
      "inputs": [
        {
          "internalType": "uint256",
          "name": "_itemId",
          "type": "uint256"
        }
      ],
      "name": "delistItem",
      "outputs": [],
      "stateMutability": "nonpayable",
      "type": "function"
    },
    {
      "inputs": [
        {
          "internalType": "uint256",
          "name": "_itemId",
          "type": "uint256"
        }
      ],
      "name": "getItem",
      "outputs": [
        {
          "internalType": "uint256",
          "name": "id",
          "type": "uint256"
        },
        {
          "internalType": "address",
          "name": "seller",
          "type": "address"
        },
        {
          "internalType": "string",
          "name": "name",
          "type": "string"
        },
        {
          "internalType": "string",
          "name": "description",
          "type": "string"
        },
        {
          "internalType": "uint256",
          "name": "price",
          "type": "uint256"
        },
        {
          "internalType": "bool",
          "name": "isActive",
          "type": "bool"
        },
        {
          "internalType": "uint256",
          "name": "createdAt",
          "type": "uint256"
        }
      ],
      "stateMutability": "view",
      "type": "function"
    },
    {
      "inputs": [
        {
          "internalType": "uint256",
          "name": "_offerId",
          "type": "uint256"
        }
      ],
      "name": "getOffer",
      "outputs": [
        {
          "internalType": "uint256",
          "name": "id",
          "type": "uint256"
        },
        {
          "internalType": "uint256",
          "name": "itemId",
          "type": "uint256"
        },
        {
          "internalType": "address",
          "name": "buyer",
          "type": "address"
        },
        {
          "internalType": "uint256",
          "name": "amount",
          "type": "uint256"
        },
        {
          "internalType": "bool",
          "name": "isActive",
          "type": "bool"
        },
        {
          "internalType": "uint256",
          "name": "createdAt",
          "type": "uint256"
        }
      ],
      "stateMutability": "view",
      "type": "function"
    },
    {
      "inputs": [
        {
          "internalType": "address",
          "name": "_user",
          "type": "address"
        }
      ],
      "name": "getUserItems",
      "outputs": [
        {
          "internalType": "uint256[]",
          "name": "",
          "type": "uint256[]"
        }
      ],
      "stateMutability": "view",
      "type": "function"
    },
    {
      "inputs": [
        {
          "internalType": "address",
          "name": "_user",
          "type": "address"
        }
      ],
      "name": "getUserOffers",
      "outputs": [
        {
          "internalType": "uint256[]",
          "name": "",
          "type": "uint256[]"
        }
      ],
      "stateMutability": "view",
      "type": "function"
    },
    {
      "inputs": [],
      "name": "itemCount",
      "outputs": [
        {
          "internalType": "uint256",
          "name": "",
          "type": "uint256"
        }
      ],
      "stateMutability": "view",
      "type": "function"
    },
    {
      "inputs": [
        {
          "internalType": "uint256",
          "name": "",
          "type": "uint256"
        }
      ],
      "name": "items",
      "outputs": [
        {
          "internalType": "uint256",
          "name": "id",
          "type": "uint256"
        },
        {
          "internalType": "address",
          "name": "seller",
          "type": "address"
        },
        {
          "internalType": "string",
          "name": "name",
          "type": "string"
        },
        {
          "internalType": "string",
          "name": "description",
          "type": "string"
        },
        {
          "internalType": "uint256",
          "name": "price",
          "type": "uint256"
        },
        {
          "internalType": "bool",
          "name": "isActive",
          "type": "bool"
        },
        {
          "internalType": "uint256",
          "name": "createdAt",
          "type": "uint256"
        }
      ],
      "stateMutability": "view",
      "type": "function"
    },
    {
      "inputs": [
        {
          "internalType": "string",
          "name": "_name",
          "type": "string"
        },
        {
          "internalType": "string",
          "name": "_description",
          "type": "string"
        },
        {
          "internalType": "uint256",
          "name": "_price",
          "type": "uint256"
        }
      ],
      "name": "listItem",
      "outputs": [
        {
          "internalType": "uint256",
          "name": "",
          "type": "uint256"
        }
      ],
      "stateMutability": "nonpayable",
      "type": "function"
    },
    {
      "inputs": [
        {
          "internalType": "uint256",
          "name": "_itemId",
          "type": "uint256"
        },
        {
          "internalType": "uint256",
          "name": "_amount",
          "type": "uint256"
        }
      ],
      "name": "makeOffer",
      "outputs": [
        {
          "internalType": "uint256",
          "name": "",
          "type": "uint256"
        }
      ],
      "stateMutability": "nonpayable",
      "type": "function"
    },
    {
      "inputs": [],
      "name": "offerCount",
      "outputs": [
        {
          "internalType": "uint256",
          "name": "",
          "type": "uint256"
        }
      ],
      "stateMutability": "view",
      "type": "function"
    },
    {
      "inputs": [
        {
          "internalType": "uint256",
          "name": "",
          "type": "uint256"
        }
      ],
      "name": "offers",
      "outputs": [
        {
          "internalType": "uint256",
          "name": "id",
          "type": "uint256"
        },
        {
          "internalType": "uint256",
          "name": "itemId",
          "type": "uint256"
        },
        {
          "internalType": "address",
          "name": "buyer",
          "type": "address"
        },
        {
          "internalType": "uint256",
          "name": "amount",
          "type": "uint256"
        },
        {
          "internalType": "bool",
          "name": "isActive",
          "type": "bool"
        },
        {
          "internalType": "uint256",
          "name": "createdAt",
          "type": "uint256"
        }
      ],
      "stateMutability": "view",
      "type": "function"
    },
    {
      "inputs": [],
      "name": "owner",
      "outputs": [
        {
          "internalType": "address",
          "name": "",
          "type": "address"
        }
      ],
      "stateMutability": "view",
      "type": "function"
    },
    {
      "inputs": [],
      "name": "platformFeePercent",
      "outputs": [
        {
          "internalType": "uint256",
          "name": "",
          "type": "uint256"
        }
      ],
      "stateMutability": "view",
      "type": "function"
    },
    {
      "inputs": [
        {
          "internalType": "uint256",
          "name": "_newFeePercent",
          "type": "uint256"
        }
      ],
      "name": "updatePlatformFee",
      "outputs": [],
      "stateMutability": "nonpayable",
      "type": "function"
    },
    {
      "inputs": [
        {
          "internalType": "address",
          "name": "",
          "type": "address"
        },
        {
          "internalType": "uint256",
          "name": "",
          "type": "uint256"
        }
      ],
      "name": "userItems",
      "outputs": [
        {
          "internalType": "uint256",
          "name": "",
          "type": "uint256"
        }
      ],
      "stateMutability": "view",
      "type": "function"
    },
    {
      "inputs": [
        {
          "internalType": "address",
          "name": "",
          "type": "address"
        },
        {
          "internalType": "uint256",
          "name": "",
          "type": "uint256"
        }
      ],
      "name": "userOffers",
      "outputs": [
        {
          "internalType": "uint256",
          "name": "",
          "type": "uint256"
        }
      ],
      "stateMutability": "view",
      "type": "function"
    },
    {
      "inputs": [],
      "name": "withdrawFees",
      "outputs": [],
      "stateMutability": "nonpayable",
      "type": "function"
    }
  ],
  "bytecode": "0x608060405260fa6008553480156200001657600080fd5b50604051620033603803806200336083398181016040528101906200003c91906200012e565b336000806101000a81548173ffffffffffffffffffffffffffffffffffffffff021916908373ffffffffffffffffffffffffffffffffffffffff16021790555080600160006101000a81548173ffffffffffffffffffffffffffffffffffffffff021916908373ffffffffffffffffffffffffffffffffffffffff1602179055505062000160565b600080fd5b600073ffffffffffffffffffffffffffffffffffffffff82169050919050565b6000620000f682620000c9565b9050919050565b6200010881620000e9565b81146200011457600080fd5b50565b6000815190506200012881620000fd565b92915050565b600060208284031215620001475762000146620000c4565b5b6000620001578482850162000117565b91505092915050565b6131f080620001706000396000f3fe608060405234801561001057600080fd5b50600436106101375760003560e01c80637b60d181116100b8578063bd5fec651161007c578063bd5fec6514610374578063bfb231d2146103a4578063c815729d146103da578063ce6019b4146103f6578063e7fb74c714610426578063ef706adf1461044257610137565b80637b60d181146102c95780638a72ea6a146102e75780638c639a851461031c5780638da5cb5b1461033a578063aa0b59881461035857610137565b80634579268a116100ff5780634579268a1461020c578063476343ee146102415780635c3bd1411461024b578063661d2c2c1461027b5780636bfb0d01146102ab57610137565b80630562021c1461013c57806305b7cdd31461016c578063100616311461019c5780631115c24d146101b85780633129e773146101d6575b600080fd5b61015660048036038101906101519190612091565b61045e565b604051610163919061212b565b60405180910390f35b61018660048036038101906101819190612146565b6106dc565b604051610193919061212b565b60405180910390f35b6101b660048036038101906101b19190612186565b610a8a565b005b6101c0610be6565b6040516101cd919061212b565b60405180910390f35b6101f060048036038101906101eb9190612186565b610bec565b604051610203979695949392919061228e565b60405180910390f35b61022660048036038101906102219190612186565b610d8d565b6040516102389695949392919061230b565b60405180910390f35b610249610e0e565b005b61026560048036038101906102609190612398565b611043565b604051610272919061212b565b60405180910390f35b610295600480360381019061029091906123d8565b611074565b6040516102a291906124c3565b60405180910390f35b6102b361110b565b6040516102c0919061212b565b60405180910390f35b6102d1611111565b6040516102de91906124e5565b60405180910390f35b61030160048036038101906102fc9190612186565b611137565b6040516103139695949392919061230b565b60405180910390f35b6103246111a0565b604051610331919061212b565b60405180910390f35b6103426111a6565b60405161034f91906124e5565b60405180910390f35b610372600480360381019061036d9190612186565b6111ca565b005b61038e60048036038101906103899190612398565b6112de565b60405161039b919061212b565b60405180910390f35b6103be60048036038101906103b99190612186565b61130f565b6040516103d1979695949392919061228e565b60405180910390f35b6103f460048036038101906103ef9190612186565b61148e565b005b610410600480360381019061040b91906123d8565b6118c0565b60405161041d91906124c3565b60405180910390f35b610440600480360381019061043b9190612186565b611957565b005b61045c60048036038101906104579190612186565b611d14565b005b60008082116104a2576040517f08c379a000000000000000000000000000000000000000000000000000000000815260040161049990612572565b60405180910390fd5b60008451116104e6576040517f08c379a00000000000000000000000000000000000000000000000000000000081526004016104dd90612604565b60405180910390fd5b600660008154809291906104f990612653565b91905055506040518060e0016040528060065481526020013373ffffffffffffffffffffffffffffffffffffffff168152602001858152602001848152602001838152602001600115158152602001428152506002600060065481526020019081526020016000206000820151816000015560208201518160010160006101000a81548173ffffffffffffffffffffffffffffffffffffffff021916908373ffffffffffffffffffffffffffffffffffffffff16021790555060408201518160020190816105c791906128a7565b5060608201518160030190816105dd91906128a7565b506080820151816004015560a08201518160050160006101000a81548160ff02191690831515021790555060c08201518160060155905050600460003373ffffffffffffffffffffffffffffffffffffffff1673ffffffffffffffffffffffffffffffffffffffff16815260200190815260200160002060065490806001815401808255809150506001900390600052602060002001600090919091909150553373ffffffffffffffffffffffffffffffffffffffff166006547f4e3807e76e8c2a7b6547b6189eba5d3dc4fe2bc48c057e8ec545ec13be8063c586856040516106c8929190612979565b60405180910390a360065490509392505050565b6000806002600085815260200190815260200160002090508060050160009054906101000a900460ff16610745576040517f08c379a000000000000000000000000000000000000000000000000000000000815260040161073c906129f5565b60405180910390fd5b3373ffffffffffffffffffffffffffffffffffffffff168160010160009054906101000a900473ffffffffffffffffffffffffffffffffffffffff1673ffffffffffffffffffffffffffffffffffffffff16036107d7576040517f08c379a00000000000000000000000000000000000000000000000000000000081526004016107ce90612a87565b60405180910390fd5b6000831161081a576040517f08c379a000000000000000000000000000000000000000000000000000000000815260040161081190612b19565b60405180910390fd5b600160009054906101000a900473ffffffffffffffffffffffffffffffffffffffff1673ffffffffffffffffffffffffffffffffffffffff166323b872dd3330866040518463ffffffff1660e01b815260040161087993929190612b39565b6020604051808303816000875af1158015610898573d6000803e3d6000fd5b505050506040513d601f19601f820116820180604052508101906108bc9190612b9c565b50600760008154809291906108d090612653565b91905055506040518060c0016040528060075481526020018581526020013373ffffffffffffffffffffffffffffffffffffffff16815260200184815260200160011515815260200142815250600360006007548152602001908152602001600020600082015181600001556020820151816001015560408201518160020160006101000a81548173ffffffffffffffffffffffffffffffffffffffff021916908373ffffffffffffffffffffffffffffffffffffffff1602179055506060820151816003015560808201518160040160006101000a81548160ff02191690831515021790555060a08201518160050155905050600560003373ffffffffffffffffffffffffffffffffffffffff1673ffffffffffffffffffffffffffffffffffffffff16815260200190815260200160002060075490806001815401808255809150506001900390600052602060002001600090919091909150553373ffffffffffffffffffffffffffffffffffffffff16846007547f3b2a24777f28e9c99a6c31e1939554147f5cac067f06527c26a7619c1c6df54386604051610a76919061212b565b60405180910390a460075491505092915050565b803373ffffffffffffffffffffffffffffffffffffffff166002600083815260200190815260200160002060010160009054906101000a900473ffffffffffffffffffffffffffffffffffffffff1673ffffffffffffffffffffffffffffffffffffffff1614610b2f576040517f08c379a0000000000000000000000000000000000000000000000000000000008152600401610b2690612c3b565b60405180910390fd5b60006002600084815260200190815260200160002090508060050160009054906101000a900460ff16610b97576040517f08c379a0000000000000000000000000000000000000000000000000000000008152600401610b8e906129f5565b60405180910390fd5b60008160050160006101000a81548160ff021916908315150217905550827fa4b62d701729d2038b6683e9584f5ea4479ea94a225c6e81b838699093b9ca2060405160405180910390a2505050565b60075481565b600080606080600080600080600260008a8152602001908152602001600020905080600001548160010160009054906101000a900473ffffffffffffffffffffffffffffffffffffffff16826002018360030184600401548560050160009054906101000a900460ff168660060154848054610c67906126ca565b80601f0160208091040260200160405190810160405280929190818152602001828054610c93906126ca565b8015610ce05780601f10610cb557610100808354040283529160200191610ce0565b820191906000526020600020905b815481529060010190602001808311610cc357829003601f168201915b50505050509450838054610cf3906126ca565b80601f0160208091040260200160405190810160405280929190818152602001828054610d1f906126ca565b8015610d6c5780601f10610d4157610100808354040283529160200191610d6c565b820191906000526020600020905b815481529060010190602001808311610d4f57829003601f168201915b50505050509350975097509750975097509750975050919395979092949650565b6000806000806000806000600360008981526020019081526020016000209050806000015481600101548260020160009054906101000a900473ffffffffffffffffffffffffffffffffffffffff1683600301548460040160009054906101000a900460ff1685600501549650965096509650965096505091939550919395565b60008054906101000a900473ffffffffffffffffffffffffffffffffffffffff1673ffffffffffffffffffffffffffffffffffffffff163373ffffffffffffffffffffffffffffffffffffffff1614610e9c576040517f08c379a0000000000000000000000000000000000000000000000000000000008152600401610e9390612ccd565b60405180910390fd5b6000600160009054906101000a900473ffffffffffffffffffffffffffffffffffffffff1673ffffffffffffffffffffffffffffffffffffffff166370a08231306040518263ffffffff1660e01b8152600401610ef991906124e5565b602060405180830381865afa158015610f16573d6000803e3d6000fd5b505050506040513d601f19601f82011682018060405250810190610f3a9190612d02565b905060008111610f7f576040517f08c379a0000000000000000000000000000000000000000000000000000000008152600401610f7690612d7b565b60405180910390fd5b600160009054906101000a900473ffffffffffffffffffffffffffffffffffffffff1673ffffffffffffffffffffffffffffffffffffffff1663a9059cbb60008054906101000a900473ffffffffffffffffffffffffffffffffffffffff16836040518363ffffffff1660e01b8152600401610ffc929190612d9b565b6020604051808303816000875af115801561101b573d6000803e3d6000fd5b505050506040513d601f19601f8201168201806040525081019061103f9190612b9c565b5050565b6004602052816000526040600020818154811061105f57600080fd5b90600052602060002001600091509150505481565b6060600560008373ffffffffffffffffffffffffffffffffffffffff1673ffffffffffffffffffffffffffffffffffffffff1681526020019081526020016000208054806020026020016040519081016040528092919081815260200182805480156110ff57602002820191906000526020600020905b8154815260200190600101908083116110eb575b50505050509050919050565b60065481565b600160009054906101000a900473ffffffffffffffffffffffffffffffffffffffff1681565b60036020528060005260406000206000915090508060000154908060010154908060020160009054906101000a900473ffffffffffffffffffffffffffffffffffffffff16908060030154908060040160009054906101000a900460ff16908060050154905086565b60085481565b60008054906101000a900473ffffffffffffffffffffffffffffffffffffffff1681565b60008054906101000a900473ffffffffffffffffffffffffffffffffffffffff1673ffffffffffffffffffffffffffffffffffffffff163373ffffffffffffffffffffffffffffffffffffffff1614611258576040517f08c379a000000000000000000000000000000000000000000000000000000000815260040161124f90612ccd565b60405180910390fd5b6103e881111561129d576040517f08c379a000000000000000000000000000000000000000000000000000000000815260040161129490612e36565b60405180910390fd5b806008819055507f45610d581145924dd7090a5017e5f2b1d6f42213bb2e95707ff86846bbfcb1ca816040516112d3919061212b565b60405180910390a150565b600560205281600052604060002081815481106112fa57600080fd5b90600052602060002001600091509150505481565b60026020528060005260406000206000915090508060000154908060010160009054906101000a900473ffffffffffffffffffffffffffffffffffffffff169080600201805461135e906126ca565b80601f016020809104026020016040519081016040528092919081815260200182805461138a906126ca565b80156113d75780601f106113ac576101008083540402835291602001916113d7565b820191906000526020600020905b8154815290600101906020018083116113ba57829003601f168201915b5050505050908060030180546113ec906126ca565b80601f0160208091040260200160405190810160405280929190818152602001828054611418906126ca565b80156114655780601f1061143a57610100808354040283529160200191611465565b820191906000526020600020905b81548152906001019060200180831161144857829003601f168201915b5050505050908060040154908060050160009054906101000a900460ff16908060060154905087565b60006003600083815260200190815260200160002090506000600260008360010154815260200190815260200160002090508160040160009054906101000a900460ff16611511576040517f08c379a000000000000000000000000000000000000000000000000000000000815260040161150890612ea2565b60405180910390fd5b3373ffffffffffffffffffffffffffffffffffffffff168160010160009054906101000a900473ffffffffffffffffffffffffffffffffffffffff1673ffffffffffffffffffffffffffffffffffffffff16146115a3576040517f08c379a000000000000000000000000000000000000000000000000000000000815260040161159a90612f34565b60405180910390fd5b8060050160009054906101000a900460ff166115f4576040517f08c379a00000000000000000000000000000000000000000000000000000000081526004016115eb906129f5565b60405180910390fd5b6000612710600854846003015461160b9190612f54565b6116159190612fc5565b905060008184600301546116299190612ff6565b9050600160009054906101000a900473ffffffffffffffffffffffffffffffffffffffff1673ffffffffffffffffffffffffffffffffffffffff1663a9059cbb33836040518363ffffffff1660e01b8152600401611688929190612d9b565b6020604051808303816000875af11580156116a7573d6000803e3d6000fd5b505050506040513d601f19601f820116820180604052508101906116cb9190612b9c565b50600082111561179757600160009054906101000a900473ffffffffffffffffffffffffffffffffffffffff1673ffffffffffffffffffffffffffffffffffffffff1663a9059cbb60008054906101000a900473ffffffffffffffffffffffffffffffffffffffff16846040518363ffffffff1660e01b8152600401611752929190612d9b565b6020604051808303816000875af1158015611771573d6000803e3d6000fd5b505050506040513d601f19601f820116820180604052508101906117959190612b9c565b505b60008460040160006101000a81548160ff02191690831515021790555060008360050160006101000a81548160ff0219169083151502179055508360010154857f397f87b3946767b09967764d50032941de13a2606bcb39dfed61d7b1ed0192cc60405160405180910390a38360020160009054906101000a900473ffffffffffffffffffffffffffffffffffffffff1673ffffffffffffffffffffffffffffffffffffffff168360010160009054906101000a900473ffffffffffffffffffffffffffffffffffffffff1673ffffffffffffffffffffffffffffffffffffffff1685600101547f04ddd54c6b746e69ba87f862311f7670bd1d7276846778ac81cd38747b27a74687600301546040516118b1919061212b565b60405180910390a45050505050565b6060600460008373ffffffffffffffffffffffffffffffffffffffff1673ffffffffffffffffffffffffffffffffffffffff16815260200190815260200160002080548060200260200160405190810160405280929190818152602001828054801561194b57602002820191906000526020600020905b815481526020019060010190808311611937575b50505050509050919050565b60006002600083815260200190815260200160002090508060050160009054906101000a900460ff166119bf576040517f08c379a00000000000000000000000000000000000000000000000000000000081526004016119b6906129f5565b60405180910390fd5b3373ffffffffffffffffffffffffffffffffffffffff168160010160009054906101000a900473ffffffffffffffffffffffffffffffffffffffff1673ffffffffffffffffffffffffffffffffffffffff1603611a51576040517f08c379a0000000000000000000000000000000000000000000000000000000008152600401611a489061309c565b60405180910390fd5b6000816004015411611a98576040517f08c379a0000000000000000000000000000000000000000000000000000000008152600401611a8f90613108565b60405180910390fd5b60006127106008548360040154611aaf9190612f54565b611ab99190612fc5565b90506000818360040154611acd9190612ff6565b9050600160009054906101000a900473ffffffffffffffffffffffffffffffffffffffff1673ffffffffffffffffffffffffffffffffffffffff166323b872dd338560010160009054906101000a900473ffffffffffffffffffffffffffffffffffffffff16846040518463ffffffff1660e01b8152600401611b5293929190612b39565b6020604051808303816000875af1158015611b71573d6000803e3d6000fd5b505050506040513d601f19601f82011682018060405250810190611b959190612b9c565b506000821115611c6357600160009054906101000a900473ffffffffffffffffffffffffffffffffffffffff1673ffffffffffffffffffffffffffffffffffffffff166323b872dd3360008054906101000a900473ffffffffffffffffffffffffffffffffffffffff16856040518463ffffffff1660e01b8152600401611c1e93929190612b39565b6020604051808303816000875af1158015611c3d573d6000803e3d6000fd5b505050506040513d601f19601f82011682018060405250810190611c619190612b9c565b505b60008360050160006101000a81548160ff0219169083151502179055503373ffffffffffffffffffffffffffffffffffffffff168360010160009054906101000a900473ffffffffffffffffffffffffffffffffffffffff1673ffffffffffffffffffffffffffffffffffffffff16857f04ddd54c6b746e69ba87f862311f7670bd1d7276846778ac81cd38747b27a7468660040154604051611d06919061212b565b60405180910390a450505050565b60006003600083815260200190815260200160002090503373ffffffffffffffffffffffffffffffffffffffff168160020160009054906101000a900473ffffffffffffffffffffffffffffffffffffffff1673ffffffffffffffffffffffffffffffffffffffff1614611dbd576040517f08c379a0000000000000000000000000000000000000000000000000000000008152600401611db49061319a565b60405180910390fd5b8060040160009054906101000a900460ff16611e0e576040517f08c379a0000000000000000000000000000000000000000000000000000000008152600401611e0590612ea2565b60405180910390fd5b600160009054906101000a900473ffffffffffffffffffffffffffffffffffffffff1673ffffffffffffffffffffffffffffffffffffffff1663a9059cbb3383600301546040518363ffffffff1660e01b8152600401611e6f929190612d9b565b6020604051808303816000875af1158015611e8e573d6000803e3d6000fd5b505050506040513d601f19601f82011682018060405250810190611eb29190612b9c565b5060008160040160006101000a81548160ff021916908315150217905550817fc28b4aed030bfacc245c0501326e1beb8c0ef0d60e4edc21067fdeb52da2a7aa60405160405180910390a25050565b6000604051905090565b600080fd5b600080fd5b600080fd5b600080fd5b6000601f19601f8301169050919050565b7f4e487b7100000000000000000000000000000000000000000000000000000000600052604160045260246000fd5b611f6882611f1f565b810181811067ffffffffffffffff82111715611f8757611f86611f30565b5b80604052505050565b6000611f9a611f01565b9050611fa68282611f5f565b919050565b600067ffffffffffffffff821115611fc657611fc5611f30565b5b611fcf82611f1f565b9050602081019050919050565b82818337600083830152505050565b6000611ffe611ff984611fab565b611f90565b90508281526020810184848401111561201a57612019611f1a565b5b612025848285611fdc565b509392505050565b600082601f83011261204257612041611f15565b5b8135612052848260208601611feb565b91505092915050565b6000819050919050565b61206e8161205b565b811461207957600080fd5b50565b60008135905061208b81612065565b92915050565b6000806000606084860312156120aa576120a9611f0b565b5b600084013567ffffffffffffffff8111156120c8576120c7611f10565b5b6120d48682870161202d565b935050602084013567ffffffffffffffff8111156120f5576120f4611f10565b5b6121018682870161202d565b92505060406121128682870161207c565b9150509250925092565b6121258161205b565b82525050565b6000602082019050612140600083018461211c565b92915050565b6000806040838503121561215d5761215c611f0b565b5b600061216b8582860161207c565b925050602061217c8582860161207c565b9150509250929050565b60006020828403121561219c5761219b611f0b565b5b60006121aa8482850161207c565b91505092915050565b600073ffffffffffffffffffffffffffffffffffffffff82169050919050565b60006121de826121b3565b9050919050565b6121ee816121d3565b82525050565b600081519050919050565b600082825260208201905092915050565b60005b8381101561222e578082015181840152602081019050612213565b60008484015250505050565b6000612245826121f4565b61224f81856121ff565b935061225f818560208601612210565b61226881611f1f565b840191505092915050565b60008115159050919050565b61228881612273565b82525050565b600060e0820190506122a3600083018a61211c565b6122b060208301896121e5565b81810360408301526122c2818861223a565b905081810360608301526122d6818761223a565b90506122e5608083018661211c565b6122f260a083018561227f565b6122ff60c083018461211c565b98975050505050505050565b600060c082019050612320600083018961211c565b61232d602083018861211c565b61233a60408301876121e5565b612347606083018661211c565b612354608083018561227f565b61236160a083018461211c565b979650505050505050565b612375816121d3565b811461238057600080fd5b50565b6000813590506123928161236c565b92915050565b600080604083850312156123af576123ae611f0b565b5b60006123bd85828601612383565b92505060206123ce8582860161207c565b9150509250929050565b6000602082840312156123ee576123ed611f0b565b5b60006123fc84828501612383565b91505092915050565b600081519050919050565b600082825260208201905092915050565b6000819050602082019050919050565b61243a8161205b565b82525050565b600061244c8383612431565b60208301905092915050565b6000602082019050919050565b600061247082612405565b61247a8185612410565b935061248583612421565b8060005b838110156124b657815161249d8882612440565b97506124a883612458565b925050600181019050612489565b5085935050505092915050565b600060208201905081810360008301526124dd8184612465565b905092915050565b60006020820190506124fa60008301846121e5565b92915050565b7f4d61726b6574706c6163653a207072696365206d75737420626520677265617460008201527f6572207468616e20300000000000000000000000000000000000000000000000602082015250565b600061255c6029836121ff565b915061256782612500565b604082019050919050565b6000602082019050818103600083015261258b8161254f565b9050919050565b7f4d61726b6574706c6163653a206e616d652063616e6e6f7420626520656d707460008201527f7900000000000000000000000000000000000000000000000000000000000000602082015250565b60006125ee6021836121ff565b91506125f982612592565b604082019050919050565b6000602082019050818103600083015261261d816125e1565b9050919050565b7f4e487b7100000000000000000000000000000000000000000000000000000000600052601160045260246000fd5b600061265e8261205b565b91507fffffffffffffffffffffffffffffffffffffffffffffffffffffffffffffffff82036126905761268f612624565b5b600182019050919050565b7f4e487b7100000000000000000000000000000000000000000000000000000000600052602260045260246000fd5b600060028204905060018216806126e257607f821691505b6020821081036126f5576126f461269b565b5b50919050565b60008190508160005260206000209050919050565b60006020601f8301049050919050565b600082821b905092915050565b60006008830261275d7fffffffffffffffffffffffffffffffffffffffffffffffffffffffffffffffff82612720565b6127678683612720565b95508019841693508086168417925050509392505050565b6000819050919050565b60006127a461279f61279a8461205b565b61277f565b61205b565b9050919050565b6000819050919050565b6127be83612789565b6127d26127ca826127ab565b84845461272d565b825550505050565b600090565b6127e76127da565b6127f28184846127b5565b505050565b5b818110156128165761280b6000826127df565b6001810190506127f8565b5050565b601f82111561285b5761282c816126fb565b61283584612710565b81016020851015612844578190505b61285861285085612710565b8301826127f7565b50505b505050565b600082821c905092915050565b600061287e60001984600802612860565b1980831691505092915050565b6000612897838361286d565b9150826002028217905092915050565b6128b0826121f4565b67ffffffffffffffff8111156128c9576128c8611f30565b5b6128d382546126ca565b6128de82828561281a565b600060209050601f83116001811461291157600084156128ff578287015190505b612909858261288b565b865550612971565b601f19841661291f866126fb565b60005b8281101561294757848901518255600182019150602085019450602081019050612922565b868310156129645784890151612960601f89168261286d565b8355505b6001600288020188555050505b505050505050565b60006040820190508181036000830152612993818561223a565b90506129a2602083018461211c565b9392505050565b7f4d61726b6574706c6163653a206974656d206973206e6f742061637469766500600082015250565b60006129df601f836121ff565b91506129ea826129a9565b602082019050919050565b60006020820190508181036000830152612a0e816129d2565b9050919050565b7f4d61726b6574706c6163653a2063616e6e6f74206f66666572206f6e20796f7560008201527f72206f776e206974656d00000000000000000000000000000000000000000000602082015250565b6000612a71602a836121ff565b9150612a7c82612a15565b604082019050919050565b60006020820190508181036000830152612aa081612a64565b9050919050565b7f4d61726b6574706c6163653a20616d6f756e74206d757374206265206772656160008201527f746572207468616e203000000000000000000000000000000000000000000000602082015250565b6000612b03602a836121ff565b9150612b0e82612aa7565b604082019050919050565b60006020820190508181036000830152612b3281612af6565b9050919050565b6000606082019050612b4e60008301866121e5565b612b5b60208301856121e5565b612b68604083018461211c565b949350505050565b612b7981612273565b8114612b8457600080fd5b50565b600081519050612b9681612b70565b92915050565b600060208284031215612bb257612bb1611f0b565b5b6000612bc084828501612b87565b91505092915050565b7f4d61726b6574706c6163653a2063616c6c6572206973206e6f7420746865207360008201527f656c6c6572000000000000000000000000000000000000000000000000000000602082015250565b6000612c256025836121ff565b9150612c3082612bc9565b604082019050919050565b60006020820190508181036000830152612c5481612c18565b9050919050565b7f4d61726b6574706c6163653a2063616c6c6572206973206e6f7420746865206f60008201527f776e657200000000000000000000000000000000000000000000000000000000602082015250565b6000612cb76024836121ff565b9150612cc282612c5b565b604082019050919050565b60006020820190508181036000830152612ce681612caa565b9050919050565b600081519050612cfc81612065565b92915050565b600060208284031215612d1857612d17611f0b565b5b6000612d2684828501612ced565b91505092915050565b7f4d61726b6574706c6163653a206e6f206665657320746f207769746864726177600082015250565b6000612d656020836121ff565b9150612d7082612d2f565b602082019050919050565b60006020820190508181036000830152612d9481612d58565b9050919050565b6000604082019050612db060008301856121e5565b612dbd602083018461211c565b9392505050565b7f4d61726b6574706c6163653a206665652063616e6e6f7420657863656564203160008201527f3025000000000000000000000000000000000000000000000000000000000000602082015250565b6000612e206022836121ff565b9150612e2b82612dc4565b604082019050919050565b60006020820190508181036000830152612e4f81612e13565b9050919050565b7f4d61726b6574706c6163653a206f66666572206973206e6f7420616374697665600082015250565b6000612e8c6020836121ff565b9150612e9782612e56565b602082019050919050565b60006020820190508181036000830152612ebb81612e7f565b9050919050565b7f4d61726b6574706c6163653a206f6e6c792073656c6c65722063616e2061636360008201527f657074206f666665727300000000000000000000000000000000000000000000602082015250565b6000612f1e602a836121ff565b9150612f2982612ec2565b604082019050919050565b60006020820190508181036000830152612f4d81612f11565b9050919050565b6000612f5f8261205b565b9150612f6a8361205b565b9250828202612f788161205b565b91508282048414831517612f8f57612f8e612624565b5b5092915050565b7f4e487b7100000000000000000000000000000000000000000000000000000000600052601260045260246000fd5b6000612fd08261205b565b9150612fdb8361205b565b925082612feb57612fea612f96565b5b828204905092915050565b60006130018261205b565b915061300c8361205b565b925082820390508181111561302457613023612624565b5b92915050565b7f4d61726b6574706c6163653a2063616e6e6f742062757920796f7572206f776e60008201527f206974656d000000000000000000000000000000000000000000000000000000602082015250565b60006130866025836121ff565b91506130918261302a565b604082019050919050565b600060208201905081810360008301526130b581613079565b9050919050565b7f4d61726b6574706c6163653a206974656d20686173206e6f2070726963650000600082015250565b60006130f2601e836121ff565b91506130fd826130bc565b602082019050919050565b60006020820190508181036000830152613121816130e5565b9050919050565b7f4d61726b6574706c6163653a206f6e6c792062757965722063616e2063616e6360008201527f656c206f66666572730000000000000000000000000000000000000000000000602082015250565b60006131846029836121ff565b915061318f82613128565b604082019050919050565b600060208201905081810360008301526131b381613177565b905091905056fea26469706673582212200f10ba260c42e76e998e7662fbd8c1b18ebedd72dc59ba4f9031e07f404354de64736f6c63430008130033",
  "linkReferences": {},
  "deployedLinkReferences": {}
}